{
  "contractName": "TokenManager",
  "abi": [
    {
      "inputs": [
        {
          "internalType": "string",
          "name": "network",
          "type": "string"
        }
      ],
      "stateMutability": "payable",
      "type": "constructor",
      "payable": true
    },
    {
      "anonymous": false,
      "inputs": [
        {
          "indexed": true,
          "internalType": "address",
          "name": "from",
          "type": "address"
        },
        {
          "indexed": false,
          "internalType": "uint256",
          "name": "amount",
          "type": "uint256"
        }
      ],
      "name": "DepositEther",
      "type": "event"
    },
    {
      "anonymous": false,
      "inputs": [
        {
          "indexed": true,
          "internalType": "address",
          "name": "previousOwner",
          "type": "address"
        },
        {
          "indexed": true,
          "internalType": "address",
          "name": "newOwner",
          "type": "address"
        }
      ],
      "name": "OwnershipTransferred",
      "type": "event"
    },
    {
      "anonymous": false,
      "inputs": [
        {
          "indexed": true,
          "internalType": "address",
          "name": "to",
          "type": "address"
        },
        {
          "indexed": false,
          "internalType": "uint256",
          "name": "amount",
          "type": "uint256"
        }
      ],
      "name": "WithdrawEther",
      "type": "event"
    },
    {
      "inputs": [
        {
          "internalType": "address",
          "name": "",
          "type": "address"
        }
      ],
      "name": "balancesERC20",
      "outputs": [
        {
          "internalType": "uint256",
          "name": "",
          "type": "uint256"
        }
      ],
      "stateMutability": "view",
      "type": "function",
      "constant": true
    },
    {
      "inputs": [
        {
          "internalType": "address",
          "name": "",
          "type": "address"
        }
      ],
      "name": "balancesERC721",
      "outputs": [
        {
          "internalType": "uint256",
          "name": "",
          "type": "uint256"
        }
      ],
      "stateMutability": "view",
      "type": "function",
      "constant": true
    },
    {
      "inputs": [
        {
          "internalType": "address",
          "name": "",
          "type": "address"
        }
      ],
      "name": "balancesETH",
      "outputs": [
        {
          "internalType": "uint256",
          "name": "",
          "type": "uint256"
        }
      ],
      "stateMutability": "view",
      "type": "function",
      "constant": true
    },
    {
      "inputs": [
        {
          "internalType": "string",
          "name": "",
          "type": "string"
        }
      ],
      "name": "contractERC20",
      "outputs": [
        {
          "internalType": "address",
          "name": "",
          "type": "address"
        }
      ],
      "stateMutability": "view",
      "type": "function",
      "constant": true
    },
    {
      "inputs": [
        {
          "internalType": "string",
          "name": "",
          "type": "string"
        }
      ],
      "name": "contractERC721",
      "outputs": [
        {
          "internalType": "address",
          "name": "",
          "type": "address"
        }
      ],
      "stateMutability": "view",
      "type": "function",
      "constant": true
    },
    {
      "inputs": [],
      "name": "owner",
      "outputs": [
        {
          "internalType": "address",
          "name": "",
          "type": "address"
        }
      ],
      "stateMutability": "view",
      "type": "function",
      "constant": true
    },
    {
      "inputs": [],
      "name": "renounceOwnership",
      "outputs": [],
      "stateMutability": "nonpayable",
      "type": "function"
    },
    {
      "inputs": [
        {
          "internalType": "address",
          "name": "newOwner",
          "type": "address"
        }
      ],
      "name": "transferOwnership",
      "outputs": [],
      "stateMutability": "nonpayable",
      "type": "function"
    },
    {
      "inputs": [
        {
          "internalType": "string",
          "name": "_tokenName",
          "type": "string"
        },
        {
          "internalType": "address",
          "name": "_tokenContract",
          "type": "address"
        }
      ],
      "name": "registerERC20",
      "outputs": [],
      "stateMutability": "nonpayable",
      "type": "function"
    },
    {
      "inputs": [
        {
          "internalType": "string",
          "name": "_tokenName",
          "type": "string"
        }
      ],
      "name": "unregisterERC20",
      "outputs": [],
      "stateMutability": "nonpayable",
      "type": "function"
    },
    {
      "inputs": [],
      "name": "depositETH",
      "outputs": [],
      "stateMutability": "payable",
      "type": "function",
      "payable": true
    },
    {
      "inputs": [
        {
          "internalType": "uint256",
          "name": "amount",
          "type": "uint256"
        }
      ],
      "name": "withdrawETH",
      "outputs": [],
      "stateMutability": "nonpayable",
      "type": "function"
    },
    {
      "inputs": [
        {
          "internalType": "address",
          "name": "_from",
          "type": "address"
        }
      ],
      "name": "balanceOf",
      "outputs": [
        {
          "internalType": "uint256",
          "name": "",
          "type": "uint256"
        }
      ],
      "stateMutability": "view",
      "type": "function",
      "constant": true
    }
  ],
  "bytecode": "0x60806040526000600160006101000a81548173ffffffffffffffffffffffffffffffffffffffff021916908373ffffffffffffffffffffffffffffffffffffffff1602179055506040516200204c3803806200204c833981810160405260208110156200006b57600080fd5b81019080805160405193929190846401000000008211156200008c57600080fd5b83820191506020820185811115620000a357600080fd5b8251866001820283011164010000000082111715620000c157600080fd5b8083526020830192505050908051906020019080838360005b83811015620000f7578082015181840152602081019050620000da565b50505050905090810190601f168015620001255780820380516001836020036101000a031916815260200191505b5060405250505060006200013e620002e760201b60201c565b9050806000806101000a81548173ffffffffffffffffffffffffffffffffffffffff021916908373ffffffffffffffffffffffffffffffffffffffff1602179055508073ffffffffffffffffffffffffffffffffffffffff16600073ffffffffffffffffffffffffffffffffffffffff167f8be0079c531659141344cd1fd0a4f28419497f9722a3daafe3b4186f6b6457e060405160405180910390a35062000223816040518060400160405280600981526020017f67616e616368696e610000000000000000000000000000000000000000000000815250620002ef60201b60201c565b15620002e057620002846040518060400160405280600381526020017f444149000000000000000000000000000000000000000000000000000000000081525073ad6d458402f60fd3bd25163575031acdce07538d620003e260201b60201c565b620002df6040518060400160405280600381526020017f554e490000000000000000000000000000000000000000000000000000000000815250731f9840a85d5af5bf1d1762f925bdaddc4201f984620003e260201b60201c565b5b506200076a565b600033905090565b6000816040516020018082805190602001908083835b602083106200032a578051825260208201915060208101905060208303925062000305565b6001836020036101000a03801982511681845116808217855250505050505090500191505060405160208183030381529060405280519060200120836040516020018082805190602001908083835b602083106200039e578051825260208201915060208101905060208303925062000379565b6001836020036101000a0380198251168184511680821785525050505050509050019150506040516020818303038152906040528051906020012014905092915050565b620003f2620002e760201b60201c565b73ffffffffffffffffffffffffffffffffffffffff166000809054906101000a900473ffffffffffffffffffffffffffffffffffffffff1673ffffffffffffffffffffffffffffffffffffffff1614620004b4576040517f08c379a00000000000000000000000000000000000000000000000000000000081526004018080602001828103825260208152602001807f4f776e61626c653a2063616c6c6572206973206e6f7420746865206f776e657281525060200191505060405180910390fd5b6000825114156200052d576040517f08c379a00000000000000000000000000000000000000000000000000000000081526004018080602001828103825260198152602001807f546f6b656e206e616d652063616e277420626520656d7074790000000000000081525060200191505060405180910390fd5b600160009054906101000a900473ffffffffffffffffffffffffffffffffffffffff1673ffffffffffffffffffffffffffffffffffffffff166002836040518082805190602001908083835b602083106200059e578051825260208201915060208101905060208303925062000579565b6001836020036101000a038019825116818451168082178552505050505050905001915050908152602001604051809103902060009054906101000a900473ffffffffffffffffffffffffffffffffffffffff1673ffffffffffffffffffffffffffffffffffffffff161462000660576040517f08c379a000000000000000000000000000000000000000000000000000000000815260040180806020018281038252602981526020018062001fee6029913960400191505060405180910390fd5b601e825110620006bc576040517f08c379a0000000000000000000000000000000000000000000000000000000008152600401808060200182810382526035815260200180620020176035913960400191505060405180910390fd5b806002836040518082805190602001908083835b60208310620006f55780518252602082019150602081019050602083039250620006d0565b6001836020036101000a038019825116818451168082178552505050505050905001915050908152602001604051809103902060006101000a81548173ffffffffffffffffffffffffffffffffffffffff021916908373ffffffffffffffffffffffffffffffffffffffff1602179055505050565b611874806200077a6000396000f3fe6080604052600436106100c25760003560e01c806378db7f151161007f578063b237d81811610059578063b237d81814610624578063f14210a614610689578063f2fde38b146106c4578063f6326fb314610715576100c2565b806378db7f15146104a05780638298eb0f146105685780638da5cb5b146105cd576100c2565b806338488475146100c75780633c649f6a146101cf5780634be7e7e014610234578063663abe331461033c57806370a0823114610424578063715018a614610489575b600080fd5b3480156100d357600080fd5b5061018d600480360360208110156100ea57600080fd5b810190808035906020019064010000000081111561010757600080fd5b82018360208201111561011957600080fd5b8035906020019184600183028401116401000000008311171561013b57600080fd5b91908080601f016020809104026020016040519081016040528093929190818152602001838380828437600081840152601f19601f82011690508083019250505050505050919291929050505061071f565b604051808273ffffffffffffffffffffffffffffffffffffffff1673ffffffffffffffffffffffffffffffffffffffff16815260200191505060405180910390f35b3480156101db57600080fd5b5061021e600480360360208110156101f257600080fd5b81019080803573ffffffffffffffffffffffffffffffffffffffff169060200190929190505050610768565b6040518082815260200191505060405180910390f35b34801561024057600080fd5b506102fa6004803603602081101561025757600080fd5b810190808035906020019064010000000081111561027457600080fd5b82018360208201111561028657600080fd5b803590602001918460018302840111640100000000831117156102a857600080fd5b91908080601f016020809104026020016040519081016040528093929190818152602001838380828437600081840152601f19601f820116905080830192505050505050509192919290505050610780565b604051808273ffffffffffffffffffffffffffffffffffffffff1673ffffffffffffffffffffffffffffffffffffffff16815260200191505060405180910390f35b34801561034857600080fd5b506104226004803603604081101561035f57600080fd5b810190808035906020019064010000000081111561037c57600080fd5b82018360208201111561038e57600080fd5b803590602001918460018302840111640100000000831117156103b057600080fd5b91908080601f016020809104026020016040519081016040528093929190818152602001838380828437600081840152601f19601f820116905080830192505050505050509192919290803573ffffffffffffffffffffffffffffffffffffffff1690602001909291905050506107c9565b005b34801561043057600080fd5b506104736004803603602081101561044757600080fd5b81019080803573ffffffffffffffffffffffffffffffffffffffff169060200190929190505050610b3f565b6040518082815260200191505060405180910390f35b34801561049557600080fd5b5061049e610b88565b005b3480156104ac57600080fd5b50610566600480360360208110156104c357600080fd5b81019080803590602001906401000000008111156104e057600080fd5b8201836020820111156104f257600080fd5b8035906020019184600183028401116401000000008311171561051457600080fd5b91908080601f016020809104026020016040519081016040528093929190818152602001838380828437600081840152601f19601f820116905080830192505050505050509192919290505050610d10565b005b34801561057457600080fd5b506105b76004803603602081101561058b57600080fd5b81019080803573ffffffffffffffffffffffffffffffffffffffff169060200190929190505050610fd6565b6040518082815260200191505060405180910390f35b3480156105d957600080fd5b506105e2610fee565b604051808273ffffffffffffffffffffffffffffffffffffffff1673ffffffffffffffffffffffffffffffffffffffff16815260200191505060405180910390f35b34801561063057600080fd5b506106736004803603602081101561064757600080fd5b81019080803573ffffffffffffffffffffffffffffffffffffffff169060200190929190505050611017565b6040518082815260200191505060405180910390f35b34801561069557600080fd5b506106c2600480360360208110156106ac57600080fd5b810190808035906020019092919050505061102f565b005b3480156106d057600080fd5b50610713600480360360208110156106e757600080fd5b81019080803573ffffffffffffffffffffffffffffffffffffffff169060200190929190505050611287565b005b61071d611494565b005b6002818051602081018201805184825260208301602085012081835280955050505050506000915054906101000a900473ffffffffffffffffffffffffffffffffffffffff1681565b60056020528060005260406000206000915090505481565b6003818051602081018201805184825260208301602085012081835280955050505050506000915054906101000a900473ffffffffffffffffffffffffffffffffffffffff1681565b6107d16115d2565b73ffffffffffffffffffffffffffffffffffffffff166000809054906101000a900473ffffffffffffffffffffffffffffffffffffffff1673ffffffffffffffffffffffffffffffffffffffff1614610892576040517f08c379a00000000000000000000000000000000000000000000000000000000081526004018080602001828103825260208152602001807f4f776e61626c653a2063616c6c6572206973206e6f7420746865206f776e657281525060200191505060405180910390fd5b60008251141561090a576040517f08c379a00000000000000000000000000000000000000000000000000000000081526004018080602001828103825260198152602001807f546f6b656e206e616d652063616e277420626520656d7074790000000000000081525060200191505060405180910390fd5b600160009054906101000a900473ffffffffffffffffffffffffffffffffffffffff1673ffffffffffffffffffffffffffffffffffffffff166002836040518082805190602001908083835b602083106109795780518252602082019150602081019050602083039250610956565b6001836020036101000a038019825116818451168082178552505050505050905001915050908152602001604051809103902060009054906101000a900473ffffffffffffffffffffffffffffffffffffffff1673ffffffffffffffffffffffffffffffffffffffff1614610a39576040517f08c379a000000000000000000000000000000000000000000000000000000000815260040180806020018281038252602981526020018061176d6029913960400191505060405180910390fd5b601e825110610a93576040517f08c379a00000000000000000000000000000000000000000000000000000000081526004018080602001828103825260358152602001806117966035913960400191505060405180910390fd5b806002836040518082805190602001908083835b60208310610aca5780518252602082019150602081019050602083039250610aa7565b6001836020036101000a038019825116818451168082178552505050505050905001915050908152602001604051809103902060006101000a81548173ffffffffffffffffffffffffffffffffffffffff021916908373ffffffffffffffffffffffffffffffffffffffff1602179055505050565b6000600460008373ffffffffffffffffffffffffffffffffffffffff1673ffffffffffffffffffffffffffffffffffffffff168152602001908152602001600020549050919050565b610b906115d2565b73ffffffffffffffffffffffffffffffffffffffff166000809054906101000a900473ffffffffffffffffffffffffffffffffffffffff1673ffffffffffffffffffffffffffffffffffffffff1614610c51576040517f08c379a00000000000000000000000000000000000000000000000000000000081526004018080602001828103825260208152602001807f4f776e61626c653a2063616c6c6572206973206e6f7420746865206f776e657281525060200191505060405180910390fd5b600073ffffffffffffffffffffffffffffffffffffffff166000809054906101000a900473ffffffffffffffffffffffffffffffffffffffff1673ffffffffffffffffffffffffffffffffffffffff167f8be0079c531659141344cd1fd0a4f28419497f9722a3daafe3b4186f6b6457e060405160405180910390a360008060006101000a81548173ffffffffffffffffffffffffffffffffffffffff021916908373ffffffffffffffffffffffffffffffffffffffff160217905550565b610d186115d2565b73ffffffffffffffffffffffffffffffffffffffff166000809054906101000a900473ffffffffffffffffffffffffffffffffffffffff1673ffffffffffffffffffffffffffffffffffffffff1614610dd9576040517f08c379a00000000000000000000000000000000000000000000000000000000081526004018080602001828103825260208152602001807f4f776e61626c653a2063616c6c6572206973206e6f7420746865206f776e657281525060200191505060405180910390fd5b600160009054906101000a900473ffffffffffffffffffffffffffffffffffffffff1673ffffffffffffffffffffffffffffffffffffffff166002826040518082805190602001908083835b60208310610e485780518252602082019150602081019050602083039250610e25565b6001836020036101000a038019825116818451168082178552505050505050905001915050908152602001604051809103902060009054906101000a900473ffffffffffffffffffffffffffffffffffffffff1673ffffffffffffffffffffffffffffffffffffffff161415610f09576040517f08c379a000000000000000000000000000000000000000000000000000000000815260040180806020018281038252602981526020018061176d6029913960400191505060405180910390fd5b600160009054906101000a900473ffffffffffffffffffffffffffffffffffffffff166002826040518082805190602001908083835b60208310610f625780518252602082019150602081019050602083039250610f3f565b6001836020036101000a038019825116818451168082178552505050505050905001915050908152602001604051809103902060006101000a81548173ffffffffffffffffffffffffffffffffffffffff021916908373ffffffffffffffffffffffffffffffffffffffff16021790555050565b60066020528060005260406000206000915090505481565b60008060009054906101000a900473ffffffffffffffffffffffffffffffffffffffff16905090565b60046020528060005260406000206000915090505481565b803073ffffffffffffffffffffffffffffffffffffffff163110156110bc576040517f08c379a000000000000000000000000000000000000000000000000000000000815260040180806020018281038252601e8152602001807f496e73756666696369656e742066756e647320696e20636f6e7472616374000081525060200191505060405180910390fd5b80600460003373ffffffffffffffffffffffffffffffffffffffff1673ffffffffffffffffffffffffffffffffffffffff168152602001908152602001600020541015611154576040517f08c379a000000000000000000000000000000000000000000000000000000000815260040180806020018281038252602a815260200180611815602a913960400191505060405180910390fd5b6111a681600460003373ffffffffffffffffffffffffffffffffffffffff1673ffffffffffffffffffffffffffffffffffffffff168152602001908152602001600020546115da90919063ffffffff16565b600460003373ffffffffffffffffffffffffffffffffffffffff1673ffffffffffffffffffffffffffffffffffffffff1681526020019081526020016000208190555060003390508073ffffffffffffffffffffffffffffffffffffffff166108fc839081150290604051600060405180830381858888f19350505050158015611234573d6000803e3d6000fd5b503373ffffffffffffffffffffffffffffffffffffffff167fdb35132c111efe920cede025e819975671cfd1b8fcc1174762c8670c4e94c211836040518082815260200191505060405180910390a25050565b61128f6115d2565b73ffffffffffffffffffffffffffffffffffffffff166000809054906101000a900473ffffffffffffffffffffffffffffffffffffffff1673ffffffffffffffffffffffffffffffffffffffff1614611350576040517f08c379a00000000000000000000000000000000000000000000000000000000081526004018080602001828103825260208152602001807f4f776e61626c653a2063616c6c6572206973206e6f7420746865206f776e657281525060200191505060405180910390fd5b600073ffffffffffffffffffffffffffffffffffffffff168173ffffffffffffffffffffffffffffffffffffffff1614156113d6576040517f08c379a00000000000000000000000000000000000000000000000000000000081526004018080602001828103825260268152602001806117cb6026913960400191505060405180910390fd5b8073ffffffffffffffffffffffffffffffffffffffff166000809054906101000a900473ffffffffffffffffffffffffffffffffffffffff1673ffffffffffffffffffffffffffffffffffffffff167f8be0079c531659141344cd1fd0a4f28419497f9722a3daafe3b4186f6b6457e060405160405180910390a3806000806101000a81548173ffffffffffffffffffffffffffffffffffffffff021916908373ffffffffffffffffffffffffffffffffffffffff16021790555050565b600034116114ed576040517f08c379a00000000000000000000000000000000000000000000000000000000081526004018080602001828103825260248152602001806117f16024913960400191505060405180910390fd5b61153f34600460003373ffffffffffffffffffffffffffffffffffffffff1673ffffffffffffffffffffffffffffffffffffffff1681526020019081526020016000205461162490919063ffffffff16565b600460003373ffffffffffffffffffffffffffffffffffffffff1673ffffffffffffffffffffffffffffffffffffffff168152602001908152602001600020819055503373ffffffffffffffffffffffffffffffffffffffff167fe628a607143b255f52afd0900e0d9630dd009c2f2635cd1e28c7aeeeff940802346040518082815260200191505060405180910390a2565b600033905090565b600061161c83836040518060400160405280601e81526020017f536166654d6174683a207375627472616374696f6e206f766572666c6f7700008152506116ac565b905092915050565b6000808284019050838110156116a2576040517f08c379a000000000000000000000000000000000000000000000000000000000815260040180806020018281038252601b8152602001807f536166654d6174683a206164646974696f6e206f766572666c6f77000000000081525060200191505060405180910390fd5b8091505092915050565b6000838311158290611759576040517f08c379a00000000000000000000000000000000000000000000000000000000081526004018080602001828103825283818151815260200191508051906020019080838360005b8381101561171e578082015181840152602081019050611703565b50505050905090810190601f16801561174b5780820380516001836020036101000a031916815260200191505b509250505060405180910390fd5b506000838503905080915050939250505056fe455243323020636f6e7472616374206164647265737320616c72656164792072656769737465726564546f6b656e206e616d65206c656e67746820746f6f206c6f6e67202873686f756c64206265203c33302063686172616374657273294f776e61626c653a206e6577206f776e657220697320746865207a65726f2061646472657373416d6f756e74206d7573742062652067726561746572207468616e203020657468657273496e73756666696369656e742062616c616e63652066726f6d207573657220696e20636f6e7472616374a2646970667358221220c5b151ff732065cdc62896218024b65f98d4e9f63a2c64814c30b851abd0ec1864736f6c63430006050033455243323020636f6e7472616374206164647265737320616c72656164792072656769737465726564546f6b656e206e616d65206c656e67746820746f6f206c6f6e67202873686f756c64206265203c3330206368617261637465727329",
  "immutableReferences": {},
  "source": "// SPDX-License-Identifier: MIT\npragma solidity ^0.6.5;\n\nimport \"@openzeppelin/contracts/token/ERC20/IERC20.sol\";\nimport \"@openzeppelin/contracts/token/ERC721/IERC721.sol\";\nimport \"@openzeppelin/contracts/access/Ownable.sol\";\nimport \"@openzeppelin/contracts/math/SafeMath.sol\";\n// import \"https://github.com/OpenZeppelin/openzeppelin-contracts/blob/master/contracts/token/ERC20/IERC20.sol\";\n// import \"https://github.com/OpenZeppelin/openzeppelin-contracts/blob/master/contracts/token/ERC721/IERC721.sol\";\n// import \"https://github.com/OpenZeppelin/openzeppelin-contracts/blob/master/contracts/access/Ownable.sol\";\n// import \"https://github.com/OpenZeppelin/openzeppelin-contracts/blob/master/contracts/math/SafeMath.sol\";\n\n// https://ethereum.stackexchange.com/questions/10864/erc20-token-and-effective-way-to-store-dividends\n\n/// @author SJS\n/// @title Manages ERC20 & ERC721 tokens\n\ncontract TokenManager is Ownable {\n    using SafeMath for uint256;\n    address private ZERO_ADDRESS = 0x0000000000000000000000000000000000000000;\n\n    mapping(string => address) public contractERC20;\n    mapping(string => address) public contractERC721;\n\n    mapping(address => uint256) public balancesETH;\n    mapping(address => uint256) public balancesERC20;\n    mapping(address => uint256) public balancesERC721;\n\n    event DepositEther(address indexed from, uint256 amount);\n    event WithdrawEther(address indexed to, uint256 amount);\n\n    // Contract constructor\n    constructor(string memory network) public payable {\n        // Register DAI & UNI contract addresses\n        if (compareStrings(network, \"ganachina\")) {\n            registerERC20(\"DAI\", 0xaD6D458402F60fD3Bd25163575031ACDce07538D);\n            registerERC20(\"UNI\", 0x1f9840a85d5aF5bf1D1762F925BDADdC4201F984);\n        }\n    }\n\n    function compareStrings(string memory s1, string memory s2) private pure returns(bool){\n        return keccak256(abi.encodePacked(s1)) == keccak256(abi.encodePacked(s2));\n    }\n\n    function registerERC20(string memory _tokenName, address _tokenContract) public onlyOwner {\n        require(bytes(_tokenName).length != 0,\n            \"Token name can't be empty\");\n        require(contractERC20[_tokenName] == ZERO_ADDRESS,\n            \"ERC20 contract address already registered\");\n        require(bytes(_tokenName).length < 30,\n            \"Token name length too long (should be <30 characters)\");\n        contractERC20[_tokenName] = _tokenContract;\n    }\n\n    function unregisterERC20(string memory _tokenName) public onlyOwner {\n        require(contractERC20[_tokenName] != ZERO_ADDRESS,\n            \"ERC20 contract address already registered\");\n        contractERC20[_tokenName] = ZERO_ADDRESS;\n    }\n\n    /**\n     * @notice  Transfer ether from sender address to contract address\n     * @dev     - Amount to be deposited must be greater than 0 ethers \n     */\n    function depositETH() external payable {\n        require(msg.value > 0, \"Amount must be greater than 0 ethers\");\n        balancesETH[msg.sender] = balancesETH[msg.sender].add(msg.value);\n        emit DepositEther(msg.sender, msg.value);\n    }\n\n    /**\n     * @notice  Transfer ether from contract address to sender address\n     *          - Contract must have enough balance to do the transfer\n     * @param   amount Amount of ether to be transferred\n     */\n    function withdrawETH(uint256 amount) public {\n        require(payable(address(this)).balance >= amount, \n            \"Insufficient funds in contract\");\n        require(balancesETH[msg.sender] >= amount,\n            \"Insufficient balance from user in contract\");\n        balancesETH[msg.sender] = balancesETH[msg.sender].sub(amount);\n        address payable recipient = msg.sender;\n        recipient.transfer(amount);\n        emit WithdrawEther(msg.sender, amount);\n    }\n    \n    function balanceOf(address _from) public view returns (uint256) {\n        return balancesETH[_from];\n    }\n\n}",
  "sourcePath": "/Users/sergijuanati/Dropbox/Docs/2. Work/14. Bitacoras/19. Solidity/token-manager/contracts/TokenManager.sol",
  "compiler": {
    "name": "solc",
    "version": "0.6.5+commit.f956cc89.Emscripten.clang"
  },
  "schemaVersion": "3.2.5",
  "updatedAt": "2020-11-21T08:44:39.599Z",
  "networkType": "ethereum",
  "devdoc": {
    "author": "SJS",
    "methods": {
      "depositETH()": {
        "details": "- Amount to be deposited must be greater than 0 ethers "
      },
      "owner()": {
        "details": "Returns the address of the current owner."
      },
      "renounceOwnership()": {
        "details": "Leaves the contract without owner. It will not be possible to call `onlyOwner` functions anymore. Can only be called by the current owner.     * NOTE: Renouncing ownership will leave the contract without an owner, thereby removing any functionality that is only available to the owner."
      },
      "transferOwnership(address)": {
        "details": "Transfers ownership of the contract to a new account (`newOwner`). Can only be called by the current owner."
      },
      "withdrawETH(uint256)": {
        "params": {
          "amount": "Amount of ether to be transferred"
        }
      }
    },
    "title": "Manages ERC20 & ERC721 tokens"
  },
  "userdoc": {
    "methods": {
      "depositETH()": {
        "notice": "Transfer ether from sender address to contract address"
      },
      "withdrawETH(uint256)": {
        "notice": "Transfer ether from contract address to sender address         - Contract must have enough balance to do the transfer"
      }
    }
  }
}