{
  "contractName": "TokenManager",
  "abi": [
    {
      "inputs": [],
      "stateMutability": "nonpayable",
      "type": "constructor"
    },
    {
      "anonymous": false,
      "inputs": [
        {
          "indexed": true,
          "internalType": "address",
          "name": "from",
          "type": "address"
        },
        {
          "indexed": false,
          "internalType": "uint256",
          "name": "amount",
          "type": "uint256"
        }
      ],
      "name": "DepositEther",
      "type": "event"
    },
    {
      "anonymous": false,
      "inputs": [
        {
          "indexed": true,
          "internalType": "address",
          "name": "previousOwner",
          "type": "address"
        },
        {
          "indexed": true,
          "internalType": "address",
          "name": "newOwner",
          "type": "address"
        }
      ],
      "name": "OwnershipTransferred",
      "type": "event"
    },
    {
      "anonymous": false,
      "inputs": [
        {
          "indexed": true,
          "internalType": "address",
          "name": "to",
          "type": "address"
        },
        {
          "indexed": false,
          "internalType": "uint256",
          "name": "amount",
          "type": "uint256"
        }
      ],
      "name": "WithdrawEther",
      "type": "event"
    },
    {
      "inputs": [
        {
          "internalType": "address",
          "name": "",
          "type": "address"
        }
      ],
      "name": "balancesERC20",
      "outputs": [
        {
          "internalType": "uint256",
          "name": "",
          "type": "uint256"
        }
      ],
      "stateMutability": "view",
      "type": "function",
      "constant": true
    },
    {
      "inputs": [
        {
          "internalType": "address",
          "name": "",
          "type": "address"
        }
      ],
      "name": "balancesERC721",
      "outputs": [
        {
          "internalType": "uint256",
          "name": "",
          "type": "uint256"
        }
      ],
      "stateMutability": "view",
      "type": "function",
      "constant": true
    },
    {
      "inputs": [
        {
          "internalType": "address",
          "name": "",
          "type": "address"
        }
      ],
      "name": "balancesETH",
      "outputs": [
        {
          "internalType": "uint256",
          "name": "",
          "type": "uint256"
        }
      ],
      "stateMutability": "view",
      "type": "function",
      "constant": true
    },
    {
      "inputs": [
        {
          "internalType": "bytes32",
          "name": "",
          "type": "bytes32"
        }
      ],
      "name": "contractERC20",
      "outputs": [
        {
          "internalType": "address",
          "name": "",
          "type": "address"
        }
      ],
      "stateMutability": "view",
      "type": "function",
      "constant": true
    },
    {
      "inputs": [
        {
          "internalType": "bytes32",
          "name": "",
          "type": "bytes32"
        }
      ],
      "name": "contractERC721",
      "outputs": [
        {
          "internalType": "address",
          "name": "",
          "type": "address"
        }
      ],
      "stateMutability": "view",
      "type": "function",
      "constant": true
    },
    {
      "inputs": [],
      "name": "owner",
      "outputs": [
        {
          "internalType": "address",
          "name": "",
          "type": "address"
        }
      ],
      "stateMutability": "view",
      "type": "function",
      "constant": true
    },
    {
      "inputs": [],
      "name": "renounceOwnership",
      "outputs": [],
      "stateMutability": "nonpayable",
      "type": "function"
    },
    {
      "inputs": [
        {
          "internalType": "address",
          "name": "newOwner",
          "type": "address"
        }
      ],
      "name": "transferOwnership",
      "outputs": [],
      "stateMutability": "nonpayable",
      "type": "function"
    },
    {
      "inputs": [
        {
          "internalType": "bytes32[]",
          "name": "tokenNames",
          "type": "bytes32[]"
        },
        {
          "internalType": "address[]",
          "name": "tokenAddresses",
          "type": "address[]"
        }
      ],
      "name": "bulkRegisterERC20",
      "outputs": [],
      "stateMutability": "nonpayable",
      "type": "function"
    },
    {
      "inputs": [
        {
          "internalType": "bytes32",
          "name": "_tokenName",
          "type": "bytes32"
        },
        {
          "internalType": "address",
          "name": "_tokenContract",
          "type": "address"
        }
      ],
      "name": "registerERC20",
      "outputs": [],
      "stateMutability": "nonpayable",
      "type": "function"
    },
    {
      "inputs": [
        {
          "internalType": "bytes32",
          "name": "_tokenName",
          "type": "bytes32"
        }
      ],
      "name": "unregisterERC20",
      "outputs": [],
      "stateMutability": "nonpayable",
      "type": "function"
    },
    {
      "inputs": [],
      "name": "depositETH",
      "outputs": [],
      "stateMutability": "payable",
      "type": "function",
      "payable": true
    },
    {
      "inputs": [
        {
          "internalType": "uint256",
          "name": "amount",
          "type": "uint256"
        }
      ],
      "name": "withdrawETH",
      "outputs": [],
      "stateMutability": "nonpayable",
      "type": "function"
    },
    {
      "inputs": [
        {
          "internalType": "address",
          "name": "_from",
          "type": "address"
        }
      ],
      "name": "balanceOf",
      "outputs": [
        {
          "internalType": "uint256",
          "name": "",
          "type": "uint256"
        }
      ],
      "stateMutability": "view",
      "type": "function",
      "constant": true
    }
  ],
  "bytecode": "0x60806040526000600160006101000a81548173ffffffffffffffffffffffffffffffffffffffff021916908373ffffffffffffffffffffffffffffffffffffffff16021790555034801561005257600080fd5b50600061006361010660201b60201c565b9050806000806101000a81548173ffffffffffffffffffffffffffffffffffffffff021916908373ffffffffffffffffffffffffffffffffffffffff1602179055508073ffffffffffffffffffffffffffffffffffffffff16600073ffffffffffffffffffffffffffffffffffffffff167f8be0079c531659141344cd1fd0a4f28419497f9722a3daafe3b4186f6b6457e060405160405180910390a35061010e565b600033905090565b6119788061011d6000396000f3fe6080604052600436106100dd5760003560e01c80638298eb0f1161007f578063b237d81811610059578063b237d81814610564578063f14210a6146105c9578063f2fde38b14610604578063f6326fb314610655576100dd565b80638298eb0f1461046d5780638da5cb5b146104d257806391ec40d214610529576100dd565b806359cc799e116100bb57806359cc799e1461021d578063606592d41461037657806370a08231146103f1578063715018a614610456576100dd565b80633c649f6a146100e2578063495d0aba146101475780634f7cdb04146101a2575b600080fd5b3480156100ee57600080fd5b506101316004803603602081101561010557600080fd5b81019080803573ffffffffffffffffffffffffffffffffffffffff16906020019092919050505061065f565b6040518082815260200191505060405180910390f35b34801561015357600080fd5b506101a06004803603604081101561016a57600080fd5b8101908080359060200190929190803573ffffffffffffffffffffffffffffffffffffffff169060200190929190505050610677565b005b3480156101ae57600080fd5b506101db600480360360208110156101c557600080fd5b810190808035906020019092919050505061091b565b604051808273ffffffffffffffffffffffffffffffffffffffff1673ffffffffffffffffffffffffffffffffffffffff16815260200191505060405180910390f35b34801561022957600080fd5b506103746004803603604081101561024057600080fd5b810190808035906020019064010000000081111561025d57600080fd5b82018360208201111561026f57600080fd5b8035906020019184602083028401116401000000008311171561029157600080fd5b919080806020026020016040519081016040528093929190818152602001838360200280828437600081840152601f19601f820116905080830192505050505050509192919290803590602001906401000000008111156102f157600080fd5b82018360208201111561030357600080fd5b8035906020019184602083028401116401000000008311171561032557600080fd5b919080806020026020016040519081016040528093929190818152602001838360200280828437600081840152601f19601f82011690508083019250505050505050919291929050505061094e565b005b34801561038257600080fd5b506103af6004803603602081101561039957600080fd5b8101908080359060200190929190505050610bfb565b604051808273ffffffffffffffffffffffffffffffffffffffff1673ffffffffffffffffffffffffffffffffffffffff16815260200191505060405180910390f35b3480156103fd57600080fd5b506104406004803603602081101561041457600080fd5b81019080803573ffffffffffffffffffffffffffffffffffffffff169060200190929190505050610c2e565b6040518082815260200191505060405180910390f35b34801561046257600080fd5b5061046b610c77565b005b34801561047957600080fd5b506104bc6004803603602081101561049057600080fd5b81019080803573ffffffffffffffffffffffffffffffffffffffff169060200190929190505050610dff565b6040518082815260200191505060405180910390f35b3480156104de57600080fd5b506104e7610e17565b604051808273ffffffffffffffffffffffffffffffffffffffff1673ffffffffffffffffffffffffffffffffffffffff16815260200191505060405180910390f35b34801561053557600080fd5b506105626004803603602081101561054c57600080fd5b8101908080359060200190929190505050610e40565b005b34801561057057600080fd5b506105b36004803603602081101561058757600080fd5b81019080803573ffffffffffffffffffffffffffffffffffffffff169060200190929190505050611123565b6040518082815260200191505060405180910390f35b3480156105d557600080fd5b50610602600480360360208110156105ec57600080fd5b810190808035906020019092919050505061113b565b005b34801561061057600080fd5b506106536004803603602081101561062757600080fd5b81019080803573ffffffffffffffffffffffffffffffffffffffff169060200190929190505050611393565b005b61065d6115a0565b005b60056020528060005260406000206000915090505481565b61067f6116de565b73ffffffffffffffffffffffffffffffffffffffff166000809054906101000a900473ffffffffffffffffffffffffffffffffffffffff1673ffffffffffffffffffffffffffffffffffffffff1614610740576040517f08c379a00000000000000000000000000000000000000000000000000000000081526004018080602001828103825260208152602001807f4f776e61626c653a2063616c6c6572206973206e6f7420746865206f776e657281525060200191505060405180910390fd5b600060f81b8260006020811061075257fe5b1a60f81b7effffffffffffffffffffffffffffffffffffffffffffffffffffffffffffff191614156107ec576040517f08c379a00000000000000000000000000000000000000000000000000000000081526004018080602001828103825260198152602001807f546f6b656e206e616d652063616e277420626520656d7074790000000000000081525060200191505060405180910390fd5b600160009054906101000a900473ffffffffffffffffffffffffffffffffffffffff1673ffffffffffffffffffffffffffffffffffffffff166002600084815260200190815260200160002060009054906101000a900473ffffffffffffffffffffffffffffffffffffffff1673ffffffffffffffffffffffffffffffffffffffff16146108c5576040517f08c379a00000000000000000000000000000000000000000000000000000000081526004018080602001828103825260298152602001806118796029913960400191505060405180910390fd5b806002600084815260200190815260200160002060006101000a81548173ffffffffffffffffffffffffffffffffffffffff021916908373ffffffffffffffffffffffffffffffffffffffff1602179055505050565b60036020528060005260406000206000915054906101000a900473ffffffffffffffffffffffffffffffffffffffff1681565b6109566116de565b73ffffffffffffffffffffffffffffffffffffffff166000809054906101000a900473ffffffffffffffffffffffffffffffffffffffff1673ffffffffffffffffffffffffffffffffffffffff1614610a17576040517f08c379a00000000000000000000000000000000000000000000000000000000081526004018080602001828103825260208152602001807f4f776e61626c653a2063616c6c6572206973206e6f7420746865206f776e657281525060200191505060405180910390fd5b60008251905081518114610a76576040517f08c379a000000000000000000000000000000000000000000000000000000000815260040180806020018281038252602d8152602001806118c8602d913960400191505060405180910390fd5b60008090505b81811015610bf557600160009054906101000a900473ffffffffffffffffffffffffffffffffffffffff1673ffffffffffffffffffffffffffffffffffffffff1660026000868481518110610acd57fe5b6020026020010151815260200190815260200160002060009054906101000a900473ffffffffffffffffffffffffffffffffffffffff1673ffffffffffffffffffffffffffffffffffffffff1614610b70576040517f08c379a00000000000000000000000000000000000000000000000000000000081526004018080602001828103825260298152602001806118796029913960400191505060405180910390fd5b828181518110610b7c57fe5b602002602001015160026000868481518110610b9457fe5b6020026020010151815260200190815260200160002060006101000a81548173ffffffffffffffffffffffffffffffffffffffff021916908373ffffffffffffffffffffffffffffffffffffffff1602179055508080600101915050610a7c565b50505050565b60026020528060005260406000206000915054906101000a900473ffffffffffffffffffffffffffffffffffffffff1681565b6000600460008373ffffffffffffffffffffffffffffffffffffffff1673ffffffffffffffffffffffffffffffffffffffff168152602001908152602001600020549050919050565b610c7f6116de565b73ffffffffffffffffffffffffffffffffffffffff166000809054906101000a900473ffffffffffffffffffffffffffffffffffffffff1673ffffffffffffffffffffffffffffffffffffffff1614610d40576040517f08c379a00000000000000000000000000000000000000000000000000000000081526004018080602001828103825260208152602001807f4f776e61626c653a2063616c6c6572206973206e6f7420746865206f776e657281525060200191505060405180910390fd5b600073ffffffffffffffffffffffffffffffffffffffff166000809054906101000a900473ffffffffffffffffffffffffffffffffffffffff1673ffffffffffffffffffffffffffffffffffffffff167f8be0079c531659141344cd1fd0a4f28419497f9722a3daafe3b4186f6b6457e060405160405180910390a360008060006101000a81548173ffffffffffffffffffffffffffffffffffffffff021916908373ffffffffffffffffffffffffffffffffffffffff160217905550565b60066020528060005260406000206000915090505481565b60008060009054906101000a900473ffffffffffffffffffffffffffffffffffffffff16905090565b610e486116de565b73ffffffffffffffffffffffffffffffffffffffff166000809054906101000a900473ffffffffffffffffffffffffffffffffffffffff1673ffffffffffffffffffffffffffffffffffffffff1614610f09576040517f08c379a00000000000000000000000000000000000000000000000000000000081526004018080602001828103825260208152602001807f4f776e61626c653a2063616c6c6572206973206e6f7420746865206f776e657281525060200191505060405180910390fd5b600060f81b81600060208110610f1b57fe5b1a60f81b7effffffffffffffffffffffffffffffffffffffffffffffffffffffffffffff19161415610fb5576040517f08c379a00000000000000000000000000000000000000000000000000000000081526004018080602001828103825260198152602001807f546f6b656e206e616d652063616e277420626520656d7074790000000000000081525060200191505060405180910390fd5b600160009054906101000a900473ffffffffffffffffffffffffffffffffffffffff1673ffffffffffffffffffffffffffffffffffffffff166002600083815260200190815260200160002060009054906101000a900473ffffffffffffffffffffffffffffffffffffffff1673ffffffffffffffffffffffffffffffffffffffff1614156110ac576040517f08c379a000000000000000000000000000000000000000000000000000000000815260040180806020018281038252601d8152602001807f455243323020636f6e7472616374206e6f74207265676973746572656400000081525060200191505060405180910390fd5b600160009054906101000a900473ffffffffffffffffffffffffffffffffffffffff166002600083815260200190815260200160002060006101000a81548173ffffffffffffffffffffffffffffffffffffffff021916908373ffffffffffffffffffffffffffffffffffffffff16021790555050565b60046020528060005260406000206000915090505481565b803073ffffffffffffffffffffffffffffffffffffffff163110156111c8576040517f08c379a000000000000000000000000000000000000000000000000000000000815260040180806020018281038252601e8152602001807f496e73756666696369656e742066756e647320696e20636f6e7472616374000081525060200191505060405180910390fd5b80600460003373ffffffffffffffffffffffffffffffffffffffff1673ffffffffffffffffffffffffffffffffffffffff168152602001908152602001600020541015611260576040517f08c379a000000000000000000000000000000000000000000000000000000000815260040180806020018281038252602a815260200180611919602a913960400191505060405180910390fd5b6112b281600460003373ffffffffffffffffffffffffffffffffffffffff1673ffffffffffffffffffffffffffffffffffffffff168152602001908152602001600020546116e690919063ffffffff16565b600460003373ffffffffffffffffffffffffffffffffffffffff1673ffffffffffffffffffffffffffffffffffffffff1681526020019081526020016000208190555060003390508073ffffffffffffffffffffffffffffffffffffffff166108fc839081150290604051600060405180830381858888f19350505050158015611340573d6000803e3d6000fd5b503373ffffffffffffffffffffffffffffffffffffffff167fdb35132c111efe920cede025e819975671cfd1b8fcc1174762c8670c4e94c211836040518082815260200191505060405180910390a25050565b61139b6116de565b73ffffffffffffffffffffffffffffffffffffffff166000809054906101000a900473ffffffffffffffffffffffffffffffffffffffff1673ffffffffffffffffffffffffffffffffffffffff161461145c576040517f08c379a00000000000000000000000000000000000000000000000000000000081526004018080602001828103825260208152602001807f4f776e61626c653a2063616c6c6572206973206e6f7420746865206f776e657281525060200191505060405180910390fd5b600073ffffffffffffffffffffffffffffffffffffffff168173ffffffffffffffffffffffffffffffffffffffff1614156114e2576040517f08c379a00000000000000000000000000000000000000000000000000000000081526004018080602001828103825260268152602001806118a26026913960400191505060405180910390fd5b8073ffffffffffffffffffffffffffffffffffffffff166000809054906101000a900473ffffffffffffffffffffffffffffffffffffffff1673ffffffffffffffffffffffffffffffffffffffff167f8be0079c531659141344cd1fd0a4f28419497f9722a3daafe3b4186f6b6457e060405160405180910390a3806000806101000a81548173ffffffffffffffffffffffffffffffffffffffff021916908373ffffffffffffffffffffffffffffffffffffffff16021790555050565b600034116115f9576040517f08c379a00000000000000000000000000000000000000000000000000000000081526004018080602001828103825260248152602001806118f56024913960400191505060405180910390fd5b61164b34600460003373ffffffffffffffffffffffffffffffffffffffff1673ffffffffffffffffffffffffffffffffffffffff1681526020019081526020016000205461173090919063ffffffff16565b600460003373ffffffffffffffffffffffffffffffffffffffff1673ffffffffffffffffffffffffffffffffffffffff168152602001908152602001600020819055503373ffffffffffffffffffffffffffffffffffffffff167fe628a607143b255f52afd0900e0d9630dd009c2f2635cd1e28c7aeeeff940802346040518082815260200191505060405180910390a2565b600033905090565b600061172883836040518060400160405280601e81526020017f536166654d6174683a207375627472616374696f6e206f766572666c6f7700008152506117b8565b905092915050565b6000808284019050838110156117ae576040517f08c379a000000000000000000000000000000000000000000000000000000000815260040180806020018281038252601b8152602001807f536166654d6174683a206164646974696f6e206f766572666c6f77000000000081525060200191505060405180910390fd5b8091505092915050565b6000838311158290611865576040517f08c379a00000000000000000000000000000000000000000000000000000000081526004018080602001828103825283818151815260200191508051906020019080838360005b8381101561182a57808201518184015260208101905061180f565b50505050905090810190601f1680156118575780820380516001836020036101000a031916815260200191505b509250505060405180910390fd5b506000838503905080915050939250505056fe455243323020636f6e7472616374206164647265737320616c726561647920726567697374657265644f776e61626c653a206e6577206f776e657220697320746865207a65726f20616464726573734c656e677468206d69736d617463683a20746f6b656e206172726179203c3e2061646472657373206172726179416d6f756e74206d7573742062652067726561746572207468616e203020657468657273496e73756666696369656e742062616c616e63652066726f6d207573657220696e20636f6e7472616374a26469706673582212205ffdd583620699d429cd6e8b06cd76a1ccd7df5ea79399c47c527846f419ab6c64736f6c63430006050033",
  "immutableReferences": {},
  "source": "// SPDX-License-Identifier: MIT\npragma solidity ^0.6.5;\n\nimport '@openzeppelin/contracts/token/ERC20/IERC20.sol';\nimport '@openzeppelin/contracts/token/ERC721/IERC721.sol';\nimport '@openzeppelin/contracts/access/Ownable.sol';\nimport '@openzeppelin/contracts/math/SafeMath.sol';\n// import 'https://github.com/OpenZeppelin/openzeppelin-contracts/blob/master/contracts/token/ERC20/IERC20.sol';\n// import 'https://github.com/OpenZeppelin/openzeppelin-contracts/blob/master/contracts/token/ERC721/IERC721.sol';\n// import 'https://github.com/OpenZeppelin/openzeppelin-contracts/blob/master/contracts/access/Ownable.sol';\n// import 'https://github.com/OpenZeppelin/openzeppelin-contracts/blob/master/contracts/math/SafeMath.sol';\n\n// https://ethereum.stackexchange.com/questions/10864/erc20-token-and-effective-way-to-store-dividends\n\n/// @author SJS\n/// @title Manages ERC20 & ERC721 tokens\n\ncontract TokenManager is Ownable {\n    using SafeMath for uint256;\n    address private ZERO_ADDRESS = 0x0000000000000000000000000000000000000000;\n\n    mapping(bytes32 => address) public contractERC20;\n    mapping(bytes32 => address) public contractERC721;\n\n    mapping(address => uint256) public balancesETH;\n    mapping(address => uint256) public balancesERC20;\n    mapping(address => uint256) public balancesERC721;\n\n    event DepositEther(address indexed from, uint256 amount);\n    event WithdrawEther(address indexed to, uint256 amount);\n\n    // Contract constructor\n    // constructor(string memory network) public {\n    //     // Register DAI & UNI contract addresses\n    //     if (compareStrings(network, 'ganachina')) {\n    //         registerERC20('DAI', 0xaD6D458402F60fD3Bd25163575031ACDce07538D);\n    //         registerERC20('UNI', 0x1f9840a85d5aF5bf1D1762F925BDADdC4201F984);\n    //     }\n    // }\n\n    // function compareStrings(string memory s1, string memory s2) private pure returns(bool){\n    //     return keccak256(abi.encodePacked(s1)) == keccak256(abi.encodePacked(s2));\n    // }\n    \n    constructor () public {\n    }\n\n    /**\n     * @notice  Register a list of contract addresses of ERC20 tokens\n     *          - Token can't be already registered \n     */\n    function bulkRegisterERC20(\n        bytes32[] memory tokenNames,\n        address[] memory tokenAddresses\n    ) public onlyOwner {\n        uint256 length = tokenNames.length;\n        require(length == tokenAddresses.length,\n            \"Length mismatch: token array <> address array\");\n        for (uint256 i = 0; i < length; i++) {\n            require(contractERC20[tokenNames[i]] == ZERO_ADDRESS,\n                \"ERC20 contract address already registered\");\n            contractERC20[tokenNames[i]] = tokenAddresses[i];\n        }\n    }\n\n    /**\n     * @notice  Register contract address of an ERC20 token\n     *          - Token can't be already registered \n     */\n    function registerERC20(bytes32 _tokenName, address _tokenContract) public onlyOwner {\n        require(_tokenName[0] != 0,\n            \"Token name can't be empty\");\n        require(contractERC20[_tokenName] == ZERO_ADDRESS,\n            \"ERC20 contract address already registered\");\n        contractERC20[_tokenName] = _tokenContract;\n    }\n\n    /**\n     * @notice  Unrgister contract address of an ERC20 token\n     *          - Token must be already registered \n     */\n    function unregisterERC20(bytes32 _tokenName) public onlyOwner {\n        require(_tokenName[0] != 0,\n            \"Token name can't be empty\");\n        require(contractERC20[_tokenName] != ZERO_ADDRESS,\n            \"ERC20 contract not registered\");\n        contractERC20[_tokenName] = ZERO_ADDRESS;\n    }\n\n    /**\n     * @notice  Transfer ether from sender address to contract address\n     *          - Amount to be deposited must be greater than 0 ethers \n     */\n    function depositETH() external payable {\n        require(msg.value > 0, \"Amount must be greater than 0 ethers\");\n        balancesETH[msg.sender] = balancesETH[msg.sender].add(msg.value);\n        emit DepositEther(msg.sender, msg.value);\n    }\n\n    /**\n     * @notice  Transfer ether from contract address to sender address\n     *          - Contract must have enough balance to do the transfer\n     *          - Msg.sender must withdraw an amount > 0 ethers\n     * @param   amount Amount of ether to be transferred\n     */\n    function withdrawETH(uint256 amount) public {\n        require(payable(address(this)).balance >= amount, \n            \"Insufficient funds in contract\");\n        require(balancesETH[msg.sender] >= amount,\n            \"Insufficient balance from user in contract\");\n        balancesETH[msg.sender] = balancesETH[msg.sender].sub(amount);\n        address payable recipient = msg.sender;\n        recipient.transfer(amount);\n        emit WithdrawEther(msg.sender, amount);\n    }\n    \n    /**\n     * @notice  Returns the balance of msg.sender\n     */\n    function balanceOf(address _from) public view returns (uint256) {\n        return balancesETH[_from];\n    }\n\n}",
  "sourcePath": "/Users/sergijuanati/Dropbox/Docs/2. Work/14. Bitacoras/19. Solidity/erc20-token-manager/contracts/TokenManager.sol",
  "compiler": {
    "name": "solc",
    "version": "0.6.5+commit.f956cc89.Emscripten.clang"
  },
  "schemaVersion": "3.2.5",
  "updatedAt": "2020-11-22T19:41:46.094Z",
  "networkType": "ethereum",
  "devdoc": {
    "author": "SJS",
    "methods": {
      "owner()": {
        "details": "Returns the address of the current owner."
      },
      "renounceOwnership()": {
        "details": "Leaves the contract without owner. It will not be possible to call `onlyOwner` functions anymore. Can only be called by the current owner.     * NOTE: Renouncing ownership will leave the contract without an owner, thereby removing any functionality that is only available to the owner."
      },
      "transferOwnership(address)": {
        "details": "Transfers ownership of the contract to a new account (`newOwner`). Can only be called by the current owner."
      },
      "withdrawETH(uint256)": {
        "params": {
          "amount": "Amount of ether to be transferred"
        }
      }
    },
    "title": "Manages ERC20 & ERC721 tokens"
  },
  "userdoc": {
    "methods": {
      "balanceOf(address)": {
        "notice": "Returns the balance of msg.sender"
      },
      "bulkRegisterERC20(bytes32[],address[])": {
        "notice": "Register a list of contract addresses of ERC20 tokens         - Token can't be already registered "
      },
      "depositETH()": {
        "notice": "Transfer ether from sender address to contract address         - Amount to be deposited must be greater than 0 ethers "
      },
      "registerERC20(bytes32,address)": {
        "notice": "Register contract address of an ERC20 token         - Token can't be already registered "
      },
      "unregisterERC20(bytes32)": {
        "notice": "Unrgister contract address of an ERC20 token         - Token must be already registered "
      },
      "withdrawETH(uint256)": {
        "notice": "Transfer ether from contract address to sender address         - Contract must have enough balance to do the transfer         - Msg.sender must withdraw an amount > 0 ethers"
      }
    }
  }
}